:0400000007EF00F016
:10000800268209ED00F0E0EF00F00600FACF14F0C8
:10001800FBCF15F0E9CF16F0EACF17F0E1CF18F0D3
:10002800E2CF19F0D9CF1AF0DACF1BF0F3CF1CF0DA
:10003800F4CF1DF0F6CF1EF0F7CF1FF0F8CF20F069
:10004800F5CF21F09EAA23D010501AE1070E0F5CBD
:10005800D8B016D09EAAFED7080E0F24D96E000E6F
:100068001020DA6EAECFDFFF080E0F24D96E000E17
:100078001020DA6EDF5024EC01F00F4A102A07D066
:100088009E9A000E106E000E0F6E010E116E21C0AA
:10009800F5FF20C0F8FF1FC0F7FF1EC0F6FF1DC008
:1000A800F4FF1CC0F3FF1BC0DAFF1AC0D9FF19C048
:1000B800E2FF18C0E1FF17C0EAFF16C0E9FF15C04C
:1000C800FBFF14C0FAFF269211002DD008C001F0E2
:1000D80009C002F006D025C003F024C004F005686A
:1000E80029D00950000AD8B4F6D7010AD8B422D0CA
:1000F800030A20D008C001F009C002F00AC003F0CA
:100108000BC004F00CC005F00DC006F00EC007F0DF
:1001180005D00AC025F00BC024F00CD00950000A05
:10012800D8B4F7D7E2D70850010AD8B4CFD7030A12
:10013800D8B4E0D72AEC01F0120011D019EC01F084
:10014800120069EC00F01200C4EC00F01200050E79
:100158000AEC01F01200150E0AEC01F01200115021
:10016800010AD8B4EBD7030AD8B4EBD7010AD8B43C
:10017800EBD7070AD8B4EBD7010AD8A41200EBD7FB
:10018800000E236E000E226E23BE06D0235011E10E
:10019800070E225CD8B00DD09EA8FED7010E2224EF
:1001A800D96E000E2320DA6EDF50AD6E224A232A64
:1001B800EBD7000E116E12005A0EF66E020EF76E95
:1001C800000EF86E0900F5CF24F00900F5CF25F0F0
:1001D80000EE01F0120EEE6AE806FDE12690269286
:1001E800000EF86E0001F9EF00F0120EAF6E900EDF
:1001F800AB6E200EAC6E949C948E9E9A9F9A9D8AAC
:10020800F28CF28EF28CA1EC00F0FDD7226E9EA843
:10021800FED722C0ADFF050E2218D8A403D0020EC7
:10022800116E1200000E116E1200010E226E2204D1
:10023800D8A403D0040E116E1200050E116E120020
:10024800136E9EA8FED713C0ADFF1200030E116EE9
:04025800120002018D
:020000040020DA
:08000000FFFFFFFFFFFFFFFF00
:020000040030CA
:0E00000000051F1FFF8385FF0FC00FE00F409C
:00000001FF
