:0400000062EF00F0BB
:100018004E80D8CF01F0E8CF02F0E0CF03F0FACF5E
:1000280004F0FBCF05F0E9CF06F0EACF07F0E1CF07
:1000380008F0E2CF09F0D9CF0AF0DACF0BF0F3CF0E
:100048000CF0F4CF0DF0F6CF0EF0F7CF0FF0F8CF9D
:1000580010F0F5CF11F0F2A40DD02B2A010E2B646D
:1000680004D0010E2C6E000E2B6E670ED76E6A0E32
:10007800D66EF29411C0F5FF10C0F8FF0FC0F7FF5D
:100088000EC0F6FF0DC0F4FF0CC0F3FF0BC0DAFF83
:100098000AC0D9FF09C0E2FF08C0E1FF07C0EAFFB4
:1000A80006C0E9FF05C0FBFF04C0FAFF03C0E0FF7C
:1000B80002C0E8FF01C0D8FF4E90100044EF07F0DF
:100800000001000A006400E80310272020202020B7
:10081000414C41524D4520202020200044657370FA
:1008200065727461646F722020202020005665720A
:1008300073616F3A200020202020202000486F7232
:0F084000613A2000446174613A2000256900008C
:10085000220E0001606F000E0001616F9DD0250E19
:1008600000016619D8B409D01EC0D9FF1FC0DAFF35
:1008700066C0DFFF1E4A1F2A8FD0000E0001626F84
:1008800020C0F6FF21C0F7FF204A212A0800F5CF3B
:1008900066F000016651000AD8B48BD0640AD8B45F
:1008A00003D00D0AD8A478D060C0D9FF61C0DAFFA8
:1008B000DECF64F0DDCF65F0020E00016027000E90
:1008C0006123000165AF08D0030E0001621300012F
:1008D000646D651FD8B0652B010E0001666F050EB3
:1008E00000016619D8B416D000016651020D010E40
:1008F000F324F66E080EF420F76E0900F55000019F
:10090000645D0900F55000016559D8A003D00001CD
:10091000662BE5D762C024F0030E2416D8B408D0A5
:100920001EC0D9FF1FC0DAFF2D0EDF6E1E4A1F2A20
:1009300066C063F02BD000016351020D010EF32459
:10094000F66E080EF420F76E0900F5CF14F00A00D9
:10095000F5CF15F064C012F065C013F0D4EC07F0C9
:1009600012C019F013C01AF0000E1C6E0A0E1B6E96
:1009700026EC08F01950300F0001666F1EC0D9FF39
:100980001FC0DAFF66C0DFFF1E4A1F2A000163078F
:1009900000016329D8A4CFD720C0F6FF21C0F7FFFC
:1009A000204A212A0800F5CF66F000016651D8A43C
:1009B00056D71EC0D9FF1FC0DAFF000EDF6E12002F
:1009C000256E2504D8A491D0262A020E26648DD047
:1009D000000E266E8AD0000EFDEC07F01C0E000102
:1009E0006D6F080E00016E6F77EC07F0400EFDECA6
:1009F00007F02D0E00016D6F080E00016E6F77EC91
:100A000007F0480E00016D6F000E00016E6F77EC6D
:100A100007F01200000EFDEC07F03D0E00016D6FB7
:100A2000080E00016E6F77EC07F02D0E00016D6F60
:100A3000000E00016E6F77EC07F0400EFDEC07F042
:100A4000440E00016D6F080E00016E6F77EC07F029
:100A5000360E00016D6F000E00016E6F77EC07F02F
:100A60003FC067F040C068F0B8EC08F067C06DF0B8
:100A700068C06EF077EC07F0A2EC08F02A50D8B40A
:100A800012008380272A050E27641200000E276EAD
:100A9000000E2A6E8390000E476E1200000EFDECD1
:100AA00007F00B0E00016D6F080E00016E6F77EC02
:100AB00007F0400EFDEC07F0370E00016D6F080ED9
:100AC00000016E6F77EC07F0410E00016D6F000EB4
:100AD00000016E6F77EC07F0360E00016D6F080EA7
:100AE00000016E6F77EC07F012002650000AD8B4B0
:100AF00072D7010AD8B48ED7030AD8A41200CED771
:100B00000F0EC16E000E936E000E956E010E946E68
:100B1000320E2D6E330E2E6E3A0E2F6E350E306E57
:100B2000390E316E3A0E326E350E336E300E346E33
:100B3000000E356E330E366E310E376E2F0E386E58
:100B4000310E396E320E3A6E2F0E3B6E000E3C6E39
:100B5000070E406EE20E3F6E1F0E3D6E0B0E3E6E98
:100B6000300E416E300E426E3A0E436E300E446EC1
:100B7000310E456E000E466ED59EF28AF294D59CDB
:100B8000D596D580D592D584D59A670ED76E6A0E44
:100B9000D66ED58EF28EF28CCDEC08F0000E82B0BF
:100BA000010E00016F6F00016F510001D8B411D028
:100BB000B40EDCEC08F0010EE0EC04F005D0000E01
:100BC00082B0010E00016F6F00016F510001D8A4C7
:100BD000F6D72C50D8B407D0000EE0EC04F0FAECB5
:100BE00005F0000E2C6E020E2618D8A4D7D7BDEC47
:100BF00006F0D4D7342A390E34641200300E346E25
:100C0000332A350E33641200300E336E312A010E52
:100C1000476E390E31641200300E316E302A350EB7
:100C200030641200300E306E2E2A390E2E6403D03E
:100C3000300E2E6E2D2A320E2D18D8A41200330E2F
:100C40002E641200300E2D6E300E2E6E372A3D2A85
:100C5000390E376403D0000E376E362AFF0E1C6E35
:100C6000FF0E1D6E3E501E6E1F6A1C501E261D502C
:100C70001F22700E1E24D96E000E1F20DA6E3D500A
:100C8000DE5CD8B01200310E376E300E366E3E2A62
:100C90003A2A390E3A6403D0300E3A6E392A0B0ED6
:100CA0003E641200310E3A6E300E396E010E3E6E09
:100CB0003F4A402A3FC018F040C019F0A6EC07F0A8
:100CC0000009D8B404D01D0E0001716F12001C0E73
:100CD0000001716F1200176EF00E8116F00E931660
:100CE000939C939A93988A9C8A9A8A98FDEC08F030
:100CF000300E66EC08F0050EDCEC08F0300E66EC09
:100D000008F0010EDCEC08F0320E66EC08F085EC21
:100D100008F00009D8A4FBD785EC08F00009D8A496
:100D2000FBD7175066EC08F085EC08F00009D8A452
:100D3000FBD7080E66EC08F085EC08F00009D8A493
:100D4000FBD70F0E66EC08F085EC08F00009D8A47C
:100D5000FBD7010E66EC08F085EC08F00009D8A47A
:100D6000FBD7040E66EC08F085EC08F00009D8A467
:100D7000FBD7800EFDEC07F01200000E82B2010ED0
:100D8000296E000E82B4010E286E2950D8B420D0EE
:100D9000B40EDCEC08F0422A390E426403D0300E67
:100DA000426E412A320E4118D8A407D0330E426455
:100DB00004D0300E426E300E416E000EE0EC04F0B6
:100DC00004D0000E82B2010E296E2950D8A4F9D7A2
:100DD0002850D8B41200B40EDCEC08F0452A390EC5
:100DE000456403D0300E456E442A350E4418D8A40D
:100DF00007D0390E456404D0300E456E300E446E77
:100E0000000EE0EC04F004D0000E82B4010E286E57
:100E10002850D8B41200F8D7000E176E13AE06D0C3
:100E2000126C131ED8B0132A010E176E15AE04D023
:100E3000146C151ED8B0152A14501510D8B418D03B
:100E4000010E166E04D0D89014361536162A15AE3B
:100E5000FAD71450125C15501358D8A004D014506F
:100E6000125E1550135AD89015321432162EF1D73F
:100E70001750D8B404D0126C131ED8B0132A12C065
:100E800012F013C013F01200EE0EF66E110EF76E94
:100E9000000EF86E00EE70F010EE0CF00900F5CFC9
:100EA000EEFFE550E150FAE10A0EF66E120EF76E13
:100EB000000EF86E00EE47F010EE07F00900F5CFD7
:100EC000EEFFE550E150FAE100EE7CF0070EEE6A2D
:100ED000E806FDE100EE26F0210EEE6AE806FDE1EF
:100EE0004E904E92000EF86E000180EF05F01AD081
:100EF00085EC08F00009D8A4FBD76DC0F6FF6EC0E2
:100F0000F7FFF86A070EF76403D00800F55005D024
:100F1000F6CFD9FFF7CFDAFFDF5047EC08F000013A
:100F20006D4B6E2B6DC0F6FF6EC0F7FFF86A070EB3
:100F3000F76403D00800F55005D0F6CFD9FFF7CFFE
:100F4000DAFFDF500009D8B41200D2D7030E18140C
:100F50001A6E000E19141B6E1A501B10D8A422D042
:100F600018C012F019C013F0000E156E640E146E46
:100F70000CEC07F012501310D8B402D0010E12007E
:100F800018C012F019C013F0010E156E900E146EF9
:100F90000CEC07F012501310D8B402D0000E12005F
:100FA000010E1200000E1200000E186E000E176ED9
:100FB00014501510D8B41CD0010E166E04D0D89061
:100FC00014361536162A15AEFAD7D89017361836B5
:100FD0001450125C15501358D8A005D01450125E4E
:100FE0001550135A1780D89015321432162EEDD79B
:100FF00017C012F018C013F01200166EF00E931600
:10100000F00E81161650136E146A138E040E156EB0
:10101000143414321332152EFBD713500F0B8112D8
:101020008A9C8A9A01EC09F08A8801EC09F08A9876
:10103000F00E811616500F0B811201EC09F08A8810
:1010400001EC09F08A980F0E931212001B501C102D
:10105000D8B418D0010E1D6E04D0D8901B361C36A3
:101060001D2A1CAEFAD71B50195C1C501A58D8A068
:1010700004D01B50195E1C501A5AD8901C321B32D7
:101080001D2EF1D719C019F01AC01AF01200136EF4
:10109000F00E9316F00E811613380F0B0F0B811202
:1010A0008A8A8A9C01EC09F08A8801EC09F08A9806
:1010B000F00E811613500F0B811201EC09F08A8893
:1010C00001EC09F08A980F0E93121200136EF00EC5
:1010D0009316F00E811613380F0B0F0B81128A9C9A
:1010E0008A9A01EC09F08A8801EC09F08A98F00EDE
:1010F000811613500F0B811201EC09F08A8801EC64
:1011000009F08A980F0E931212008A8C8A9A01ECC9
:1011100009F08A8801EC09F081A60AD08A9801ECCE
:1011200009F08A8801EC09F08A988A9C010E120065
:101130008A9801EC09F08A8801EC09F08A988A9C67
:10114000000E12004750D8B4120041502D18D8A4F8
:10115000120042502E18D8A4120044503018D8A4BF
:10116000120045503118D8A41200010E2A6E120048
:10117000690E1E6E000E1F6E4B0E206E080E216E45
:1011800067C022F068C023F028EC04F0690E00016B
:10119000676F000E0001686F1200280E6BEC06F0FE
:1011A00085EC08F00009D8A4FBD7060E66EC08F021
:1011B0000C0E66EC08F01200136E0D0E126EFC0E93
:1011C000E82EFED7122EFCD7132EF7D71200126E80
:1011D000C80E00D0E82EFDD7122EFAD71200126EDC
:1011E000030EE82EFED700F0122EFAD712001F1CB5
:1011F0001F1E1F1E1F1F1E1F1E1FB40EE7EC08F030
:101200001200780EEFEC08F012000130312E303071
:0112100000DD
:020000040020DA
:08000000FFFFFFFFFFFFFFFF00
:020000040030CA
:0E00000000051F1EFF8185FF0FC00FE00F409F
:00000001FF
