:0400000099EF00F084
:100018001680D8CF01F0E8CF02F0E0CF03F0FACF96
:1000280004F0FBCF05F0E9CF06F0EACF07F0E1CF07
:1000380008F0E2CF09F0D9CF0AF0DACF0BF0F3CF0E
:100048000CF0F4CF0DF0F6CF0EF0F7CF0FF0F8CF9D
:1000580010F0F5CF11F0F2A444D01550D8B40BD05D
:100068001550010D010EF324F66E080EF420F76EFC
:100078000800F5CF81FF1550D8A40ED01250D8A48F
:100088000BD01350D8A408D082908284080E156E25
:10009800000E146E010E126E1550D8A40ED0120464
:1000A800D8A40BD01450D8A408D082828294030E0E
:1000B800156E010E136E000E126E1550D8A40BD0DB
:1000C8001304D8A408D082928280010E146E000E08
:1000D800136E050E156E1506670ED76E6A0ED66E70
:1000E800F29411C0F5FF10C0F8FF0FC0F7FF0EC063
:1000F800F6FF0DC0F4FF0CC0F3FF0BC0DAFF0AC017
:10010800D9FF09C0E2FF08C0E1FF07C0EAFF06C047
:10011800E9FF05C0FBFF04C0FAFF03C0E0FF02C00F
:0E012800E8FF01C0D8FF169010001EEF04F093
:10080000003F065B4F666D7D077F6F000F0EC16E68
:10081000000E936E000E946ED59EF28AF294D59CD3
:10082000D596D590D582D584D59A670ED76E6A0EA7
:10083000D66ED58EF28EF28C8280FFD76A0EF66E5F
:10084000080EF76E000EF86E0900F5CF14F00900DF
:10085000F5CF15F0136A126A16901692000EF86E14
:0C086000080EF76E000106EF04F0010422
:020000040020DA
:08000000FFFFFFFFFFFFFFFF00
:020000040030CA
:0E00000000051F1EFF8185FF0FC00FE00F409F
:00000001FF
