:0400000033EF04F0E6
:10080000003F065B4F666D7D077F6F000F0EC16E68
:10081000000E936E000E016ED59EF28AF294D59C66
:10082000D596D590D582D584D59A670ED76E6A0EA7
:10083000D66ED58EF2A4FED70150010D010EF32421
:10084000F66E080EF420F76E0800F5CF81FF012A3E
:10085000090E016402D0000E016E670ED76E6A0E9B
:10086000D66EF294E7D7000EF86E080EF76E000110
:0408700006EF04F09B
:020000040020DA
:08000000FFFFFFFFFFFFFFFF00
:020000040030CA
:0E00000000051F1EFF8185FF0FC00FE00F409F
:00000001FF
