:04000000C5EF3FF019
:107F8A000001C8EF3FF09490948282906E0E036EC7
:107F9A0082A212D082A202D0828001D08290730E75
:107FAA00036E030E026E8A0E016E560EE82EFED77F
:107FBA00012EFCD7022EFAD782A2EAD7730E031833
:107FCA00D8A4E6D782B203D0016A012A01D0016A95
:107FDA0082500118FE0B0118826E6E0E036E030E9C
:107FEA00026E8A0E016E560EE82EFED7012EFCD7BF
:067FFA00022EFAD7CDD7DC
:020000040020DA
:08000000FFFFFFFFFFFFFFFF00
:020000040030CA
:0E00000000051F1EFF8385FF0FC00FE00F409D
:00000001FF
