:0400000059EF00F0C4
:100018001280D8CF01F0E8CF02F0E0CF03F0FACF9A
:1000280004F0FBCF05F0E9CF06F0EACF07F0E1CF07
:1000380008F0E2CF09F0D9CF0AF0DACF0BF0F3CF0E
:100048000CF0F4CF0DF0F6CF0EF0F7CF0FF0F8CF9D
:1000580010F0F5CF11F08280670ED76E6A0ED66E5B
:10006800F29411C0F5FF10C0F8FF0FC0F7FF0EC0E3
:10007800F6FF0DC0F4FF0CC0F3FF0BC0DAFF0AC097
:10008800D9FF09C0E2FF08C0E1FF07C0EAFF06C0C8
:10009800E9FF05C0FBFF04C0FAFF03C0E0FF02C090
:1000A800E8FF01C0D8FF129010006DEF00F09490A7
:1000B800D59EF284F294D59CD596D580D582D594D8
:1000C800D59A000ED76E000ED66ED58EF28EF28CB3
:0C00D800FFD71290129200015BEF00F0C5
:020000040020DA
:08000000FFFFFFFFFFFFFFFF00
:020000040030CA
:0E00000000051F1EFF8385FF0FC00FE00F409D
:00000001FF
