:040000006DEF00F0B0
:100018001480D8CF02F0E8CF03F0E0CF04F0FACF95
:1000280005F0FBCF06F0E9CF07F0EACF08F0E1CF03
:1000380009F0E2CF0AF0D9CF0BF0DACF0CF0F3CF0A
:100048000DF0F4CF0EF0F6CF0FF0F7CF10F0F8CF99
:1000580011F0F5CF12F0F2A418D0132A000ED76EC3
:10006800000ED66EF2941304D8A40FD083A003D048
:10007800016A012A01D0016A010E01268350011884
:10008800FE0B0118836E000E136E12C0F5FF11C02F
:10009800F8FF10C0F7FF0FC0F6FF0EC0F4FF0DC049
:1000A800F3FF0CC0DAFF0BC0D9FF0AC0E2FF09C09A
:1000B800E1FF08C0EAFF07C0E9FF06C0FBFF05C073
:1000C800FAFF04C0E0FF03C0E8FF02C0D8FF1490A5
:1000D800100080EF00F0D59EF284F294D59CD5965E
:1000E800D580D582D594D59A000ED76E000ED66EDF
:1000F800D58EF28EF28CFFD71490149200016FEF18
:0201080000F005
:020000040020DA
:08000000FFFFFFFFFFFFFFFF00
:020000040030CA
:0E00000000051F1EFF8385FF0FC00FE00F409D
:00000001FF
