:0400000063EF04F0B6
:10080000003F065B4F666D7D077F6F00000E956EA3
:100810009480760ED36E48D082B049D0000E046E1C
:10082000000E036E04BE06D0045013E1150E035CE7
:10083000D8B00FD0210E016E760EE82EFED7012E15
:10084000FCD700D0034A042A04BEF4D7045001E1C7
:10085000EDD782B0E1D70750010D010EF324F66EFB
:10086000080EF420F76E0800F5CF81FF000E066E2B
:10087000000E056E06BE06D0065012E1140E055C91
:10088000D8B00ED0020E026E450E016EAA0EE82EF2
:10089000FED7012EFCD7022EFAD7054A062AEAD740
:1008A000072A090E0764B8D7000E076EB5D70750A0
:1008B000010D010EF324F66E080EF420F76E080009
:1008C000F5CF81FFA9D7000EF86E080EF76E000174
:0408D00006EF04F03B
:020000040020DA
:08000000FFFFFFFFFFFFFFFF00
:020000040030CA
:0E00000000051F1EFF8385FF0FC00FE00F409D
:00000001FF
