:0400000062EF00F0BB
:100018001880D8CF01F0E8CF02F0E0CF03F0FACF94
:1000280004F0FBCF05F0E9CF06F0EACF07F0E1CF07
:1000380008F0E2CF09F0D9CF0AF0DACF0BF0F3CF0E
:100048000CF0F4CF0DF0F6CF0EF0F7CF0FF0F8CF9D
:1000580010F0F5CF11F0F2A40DD0142A010E14649B
:1000680004D0010E156E000E146E670ED76E6A0E60
:10007800D66EF29411C0F5FF10C0F8FF0FC0F7FF5D
:100088000EC0F6FF0DC0F4FF0CC0F3FF0BC0DAFF83
:100098000AC0D9FF09C0E2FF08C0E1FF07C0EAFFB4
:1000A80006C0E9FF05C0FBFF04C0FAFF03C0E0FF7C
:1000B80002C0E8FF01C0D8FF1890100062EF04F0FA
:10080000003F065B4F666D7D077F6F000F0EC16E68
:10081000000E936E000E946ED59EF28AF294D59CD3
:10082000D596D580D592D584D59A670ED76E6A0EA7
:10083000D66ED58EF28EF28C82801550D8B4FDD74C
:100840001750D8B411D01704D8A40ED01250D8A481
:100850000BD01350D8A408D082908284080E176E53
:10086000000E166E010E126E1704D8A40ED01204DC
:10087000D8A40BD01650D8A408D082828294030E3C
:10088000176E010E136E000E126E1704D8A40BD053
:100890001304D8A408D082928280010E166E000E36
:1008A000136E050E176E17061750010D010EF32477
:1008B000F66E080EF420F76E0800F5CF81FF000EEB
:1008C000156EBBD7F60EF66E080EF76E000EF86EBC
:1008D0000900F5CF16F00900F5CF17F0156A146A74
:1008E000136A126A18901892000EF86E080EF76ECE
:0808F000000106EF04F0010510
:020000040020DA
:08000000FFFFFFFFFFFFFFFF00
:020000040030CA
:0E00000000051F1EFF8185FF0FC00FE00F409F
:00000001FF
