:04000000BEEF04F05B
:10080000003F065B4F666D7D077F6F000F0EC16E68
:10081000000E936E010EF66E0800F5CF81FF030EF9
:10082000066E8A0E056E560EE82EFED7052EFCD7F4
:10083000062EFAD7020EF66E080EF76E0800F5CFF8
:1008400081FF030E066E8A0E056E560EE82EFED749
:10085000052EFCD7062EFAD7030EF66E080EF76E9D
:100860000800F5CF81FF030E066E8A0E056E560E48
:10087000E82EFED7052EFCD7062EFAD7040EF66E0C
:10088000080EF76E0800F5CF81FF030E066E8A0E84
:10089000056E560EE82EFED7052EFCD7062EFAD78B
:1008A000050EF66E080EF76E0800F5CF81FF030EF9
:1008B000066E8A0E056E560EE82EFED7052EFCD764
:1008C000062EFAD7060EF66E080EF76E0800F5CF64
:1008D00081FF030E066E8A0E056E560EE82EFED7B9
:1008E000052EFCD7062EFAD7070EF66E080EF76E09
:1008F0000800F5CF81FF030E066E8A0E056E560EB8
:10090000E82EFED7052EFCD7062EFAD7080EF66E77
:10091000080EF76E0800F5CF81FF030E066E8A0EF3
:10092000056E560EE82EFED7052EFCD7062EFAD7FA
:10093000090EF66E080EF76E0800F5CF81FF030E64
:10094000066E8A0E056E560EE82EFED7052EFCD7D3
:10095000062EFAD70A0EF66E080EF76E0800F5CFCF
:1009600081FF030E066E8A0E056E560EE82EFED728
:10097000052EFCD7062EFAD700EF00F0046A036AB2
:10098000026A016A000EF86E080EF76E000106EFAB
:0209900004F071
:020000040020DA
:08000000FFFFFFFFFFFFFFFF00
:020000040030CA
:0E00000000051F1FFF8185FF0FC00FE00F409E
:00000001FF
