:0400000062EF00F0BB
:100018001680D8CF01F0E8CF02F0E0CF03F0FACF96
:1000280004F0FBCF05F0E9CF06F0EACF07F0E1CF07
:1000380008F0E2CF09F0D9CF0AF0DACF0BF0F3CF0E
:100048000CF0F4CF0DF0F6CF0EF0F7CF0FF0F8CF9D
:1000580010F0F5CF11F0F2A40DD0142A010E14649B
:1000680004D0010E156E000E146E670ED76E6A0E60
:10007800D66EF29411C0F5FF10C0F8FF0FC0F7FF5D
:100088000EC0F6FF0DC0F4FF0CC0F3FF0BC0DAFF83
:100098000AC0D9FF09C0E2FF08C0E1FF07C0EAFFB4
:1000A80006C0E9FF05C0FBFF04C0FAFF03C0E0FF7C
:1000B80002C0E8FF01C0D8FF1690100094EF00F0CE
:1000C800000E936E010E946ED59EF28AF294D59C22
:1000D800D596D580D592D584D59A670ED76E6A0EF7
:1000E800D66ED58EF28EF28C000E82B2010E126E92
:1000F80082A206D0132A1350010B136E82B2FED7C8
:100108001350D8B40BD01550D8B4EED781B002D064
:10011800818001D08190000E156EE6D78190E4D7DA
:10012800156A146A136A16901692000164EF00F0BB
:020000040020DA
:08000000FFFFFFFFFFFFFFFF00
:020000040030CA
:0E00000000051F1EFF8185FF0FC00FE00F409F
:00000001FF
