:040000006BEF00F0B2
:100018001380D8CF01F0E8CF02F0E0CF03F0FACF99
:1000280004F0FBCF05F0E9CF06F0EACF07F0E1CF07
:1000380008F0E2CF09F0D9CF0AF0DACF0BF0F3CF0E
:100048000CF0F4CF0DF0F6CF0EF0F7CF0FF0F8CF9D
:1000580010F0F5CF11F0F2A416D01250010D010ED8
:10006800F324F66E080EF420F76E0800F5CF81FF32
:10007800122A090E126402D0000E126E670ED76E95
:100088006A0ED66EF29411C0F5FF10C0F8FF0FC0CB
:10009800F7FF0EC0F6FF0DC0F4FF0CC0F3FF0BC056
:1000A800DAFF0AC0D9FF09C0E2FF08C0E1FF07C0B4
:1000B800EAFF06C0E9FF05C0FBFF04C0FAFF03C062
:1000C800E0FF02C0E8FF01C0D8FF139010001BEF4B
:0200D80004F032
:10080000003F065B4F666D7D077F6F000F0EC16E68
:10081000000E936ED59EF28AF294D59CD596D59013
:10082000D582D584D59A670ED76E6A0ED66ED58ED0
:10083000F28EF28CFFD7126A13901392000EF86EAC
:0A084000080EF76E000106EF04F049
:020000040020DA
:08000000FFFFFFFFFFFFFFFF00
:020000040030CA
:0E00000000051F1EFF8185FF0FC00FE00F409F
:00000001FF
